:020000040800F2
:10000000000002207D07000879070008015E000853
:100010007907000879070008790700080000000048
:100020000000000000000000000000007907000848
:10003000790700080000000079070008855D0008C6
:100040007907000879070008790700087907000890
:100050007907000879070008790700087907000880
:100060007907000879070008790700089159000806
:100070009D59000889460008A9590008B55900088B
:1000800045FF00082D4E0008790700087907000891
:100090007907000879070008790700087907000840
:1000A0007907000879070008790700087907000830
:1000B00075F3000881F300088DF300085D4E000819
:1000C00079070008694E0008790700082DEC000840
:1000D00039EC000855FD000885FD0008BDFD00084D
:1000E0007907000879070008000000007907000878
:1000F00079070008790700087907000879070008E0
:10010000790700087907000899F3000845EC000812
:10011000F5FD00082DFE00087907000879070008A2
:10012000790700087907000869EC00089DEC0008D1
:1001300079FF0008790700087907000879070008A7
:1001400000000000000000000000000000000000AF
:1001500079070008790700087907000865FE00089C
:10016000754E000879070008955D0008B95D000824
:1001700079070008DD5D00087907000879070008A5
:1001800079070008790700089DFE0008D5FE0008E1
:1001900051EC00085DEC00087907000879070008B9
:1001A000790700087907000879070008790700082F
:1001B0001156000879070008790700087907000838
:1001C000790700087907000879070008790700080F
:1001D00079070008790700087907000879070008FF
:1001E00079070008790700087907000879070008EF
:1001F00079070008790700087907000879070008DF
:1002000079070008790700087907000879070008CE
:1002100079070008790700087907000879070008BE
:100220007907000879070008790700080000000036
:100230007907000879070008000000007907000826
:10024000790700087907000879070008790700088E
:10025000790700087907000879070008790700087E
:10026000790700087907000879070008790700086E
:1002700079070008790700080DFF0008000000005A
:1002800079070008790700087907000800000000D6
:080290000000000079070008DE
:1002A00001F0FF01102A2BDB10F0070F08D010F827
:1002B000013B013A8B422DD010F0070F42B3F6D12B
:1002C000F0B441EA012141EA014122F007047FF044
:1002D00000070023F0E80256083C85EA010586EA9B
:1002E000010685FA47F5A3FA87F586FA47F6A5FAD7
:1002F00087F68EB9EED1F0BC01F0FF0102F00702E3
:1003000032B110F8013B013A83EA010313B1F8D18D
:100310000020704701387047002D06BF354603386E
:10032000073815F0010F07D1013015F4807F02BFA7
:10033000013015F4C03F0130F0BC0138704700BFF8
:1003400081F0004102E000BF83F0004330B54FEA86
:1003500041044FEA430594EA050F08BF90EA020FF3
:100360001FBF54EA000C55EA020C7FEA645C7FEA86
:10037000655C00F0E2804FEA5454D4EB5555B8BFA9
:100380006D420CDD2C4480EA020281EA030382EA1A
:10039000000083EA010180EA020281EA0303362DAC
:1003A00088BF30BD11F0004F4FEA01314FF4801C7F
:1003B0004CEA113102D0404261EB410113F0004F91
:1003C0004FEA03334CEA133302D0524263EB430348
:1003D00094EA050F00F0A780A4F10104D5F1200EE6
:1003E0000DDB02FA0EFC22FA05F2801841F1000141
:1003F00003FA0EF2801843FA05F359410EE0A5F115
:1004000020050EF1200E012A03FA0EFC28BF4CF045
:10041000020C43FA05F3C01851EBE37101F00045FB
:1004200007D54FF0000EDCF1000C7EEB00006EEB08
:100430000101B1F5801F1BD3B1F5001F0CD3490892
:100440005FEA30004FEA3C0C04F101044FEA4452E9
:1004500012F5800F80F09A80BCF1004F08BF5FEA70
:10046000500C50F1000041EB045141EA050130BD50
:100470005FEA4C0C404141EB0101013C28BFB1F562
:10048000801FE9D291F0000F04BF01460020B1FAAD
:1004900081F308BF2033A3F10B03B3F120020CDA80
:1004A0000C3208DD02F1140CC2F10C0201FA0CF05E
:1004B00021FA02F10CE002F11402D8BFC2F1200CC3
:1004C00001FA02F120FA0CFCDCBF41EA0C01904079
:1004D000E41AA2BF01EB0451294330BD6FEA0404C2
:1004E0001F3C1CDA0C340EDC04F11404C4F12002AD
:1004F00020FA04F001FA02F340EA030021FA04F3BF
:1005000045EA030130BDC4F10C04C4F1200220FA15
:1005100002F001FA04F340EA0300294630BD21FA53
:1005200004F0294630BD94F0000F83F4801306BF19
:1005300081F480110134013D4EE77FEA645C18BF0D
:100540007FEA655C29D094EA050F08BF90EA020FA4
:1005500005D054EA000C04BF1946104630BD91EA9C
:10056000030F1EBF0021002030BD5FEA545C05D19F
:100570004000494128BF41F0004130BD14F58004DE
:100580003CBF01F5801130BD01F0004545F0FE4152
:1005900041F470014FF0000030BD7FEA645C1ABF87
:1005A000194610467FEA655C1CBF0B46024650EABE
:1005B000013406BF52EA033591EA030F41F40021EA
:1005C00030BD00BF90F0000F04BF0021704730B570
:1005D0004FF4806404F132044FF000054FF0000145
:1005E00050E700BF90F0000F04BF0021704730B506
:1005F0004FF4806404F1320410F0004548BF4042DB
:100600004FF000013EE700BF42004FEAE2014FEA2F
:1006100031014FEA02701FBF12F07F4393F07F4F0A
:1006200081F06051704732F07F4208BF704793F00D
:100630007F4F04BF41F40021704730B54FF4607420
:1006400001F0004521F000411CE700BF50EA010223
:1006500008BF704730B54FF000050AE050EA0102CC
:1006600008BF704730B511F0004502D5404261EB3C
:1006700041014FF4806404F132045FEA915C3FF47D
:10068000D8AE4FF003025FEADC0C18BF03325FEA1A
:10069000DC0C18BF033202EBDC02C2F1200300FACB
:1006A00003FC20FA02F001FA03FE40EA0E0021FAF0
:1006B00002F11444BDE600BF53B94AB9002908BF8E
:1006C00000281CBF4FF0FF314FF0FF3000F00CB896
:1006D000ADF1080C6DE904CE13F026FEDDF804E060
:1006E000DDE9022304B07047704700BF0348044BA4
:1006F000834202D0034B03B1184770470004002423
:1007000000040024000000000548064B1B1AD90F06
:1007100001EBA301491002D0034B03B11847704706
:1007200000040024000400240000000010B5064C62
:10073000237843B9FFF7DAFF044B13B10448AFF352
:1007400000800123237010BD00040024000000007D
:10075000E04D010808B5054B1BB105490548AFF34D
:100760000080BDE80840FFF7CFBF00BF00000000D9
:1007700004040024E04D0108FEE700BF0C4A0D4BC5
:10078000934204D0D21A0C49184613F02DF80B4AA4
:100790000B4B934204D0D21A0021184612F08CFF62
:1007A00005F06EFD12F0EAFF01F034FDFEE700BF38
:1007B0000004002400000024104E0108F06D042401
:1007C00000040024704700BF704700BF704700BF9F
:1007D000704700BF704700BFF8B50546A7480E46F2
:1007E000284405F500342DED088B11F02BFEA448AC
:1007F000F0EE409A284411F025FED4ED1C7AF0EE7C
:1008000040AA236AF4EEE97AF1EE10FA00F3F480DC
:10081000D4ED205A94ED1A7AD4ED1D7AF4EEEA7AEA
:10082000F1EE10FA00F3A580D4ED216AD4ED1B7A25
:10083000D4ED1E8A94ED1F8A37EE687A94F82C2046
:1008400077EEC87AC4ED1C9AC4ED1DAAE7EE258A9E
:10085000A7EEA68AC4ED1E8A84ED1F8A2AB1F7EEA0
:10086000007A77EEE99A77EEEAAA013B9FED85BA26
:1008700009EE103A29EE8B0AB8EE499A69EE299AE8
:1008800029EE2A9AC4ED169A78EEA98A84ED179A71
:1008900038EE098A12F0D8FBB0EE40AA2AEE8B0A95
:1008A00084ED14AA12F0D0FBFDEEE86AB0EE407AB7
:1008B0006A6843F6FF73FDEEC87A05EB8201F8EE35
:1008C000E65A84ED157A1A44D6F800C016EE906AFE
:1008D00017EE904AC2F30D02C1F80CC09E4205F516
:1008E00080316A6028BF1E469C42086978EEE58A1E
:1008F00028BF1C463244034401EB8000B8EEE76A8F
:100900009FED610AC0F818C0C2F30D000132C3F3B5
:100910000D0305EB800038EE468AC2F30D020B6131
:10092000C5ED008A2344AE6005EB8205D0ED036A75
:100930005A1C95ED036AC3F30D03C2F30D0281ED5A
:10094000038A36EE666A01EB830301EB82024C6197
:10095000D3ED067AE8EE866A92ED066A36EE676AAD
:10096000E8EE067AAAEE260ABDEC088BA7EE270A67
:10097000F8BD464F46493A689FED465A82EA4232F0
:10098000D4ED193A9FED446A82EA5242DFED434AC0
:1009900082EA421282EA423080EA504080EA401005
:1009A0003860A1FB027CA1FB00714FEADC1CC90985
:1009B000CCEB0C2CC1EB0121A2EB0C02401A07EE90
:1009C000902AF8EEE76AC6EE857A06EE900AF8EE0F
:1009D000E66A86EE854A06EE903AFBEEEF6A67EE2F
:1009E000A37A67EEA67AF0EE466AC4ED1B7AE4EECF
:1009F000246AC4ED216A1BE7244F25483A68DFEDDD
:100A0000256A82EA4232D4ED194A9FED246A82EACD
:100A10005242DFED215A82EA421282EA423181EAF1
:100A2000514181EA41113960A0FB027CA0FB0170B9
:100A30004FEADC1CC009CCEB0C2CC0EB0020A2EB75
:100A40000C02091A07EE902AF8EEE77A87EEA67AEA
:100A500007EE901AF8EEE77A87EEA65A07EE903A7C
:100A6000FBEEEF7A27EE247A27EE277A84ED1A7AC6
:100A7000E5EE065AC4ED205ACEE600BF3000020073
:100A800040000200DB0F4940000000002800002465
:100A90008180808000007F4317B751396F12833AFD
:100AA00070B52DED048BF0EE408ADFEDBE7A054681
:100AB000044600F5F076034693ED097A3C339E42F6
:100AC00077EE877AF8D1B7EE006A95ED787AF0EE96
:100AD000E86AD5ED794A95ED869AF4EEC67AD5EDB9
:100AE000875A76EEC76A95ED7E5AD5F8F031F1EE69
:100AF00010FA15EE102AA6EEA47ADFEDAA9A03EBFF
:100B0000820377FE867AC6EE276A85ED787A85EDD0
:100B10007A7A76EEC97AA7EEA59A85ED869AC3ED24
:100B2000008AF7EE007AD4ED0C6AB8EEC58AF4EECE
:100B3000E76AF1EE10FAC0F22B81D4ED077AF5EEF8
:100B4000C07AF1EE10FAC0F21C8194ED0A7AA26923
:100B5000B5EEC07A944BC4ED067A6261F1EE10FAFC
:100B6000E36180F218810023236312F0A3FC05EEF9
:100B7000900AB0EE004AD4ED0E4ABFEE006A94ED42
:100B80000B7AFAEEE05AD4ED0C6AF1EE047A95EDA8
:100B90007E5AA5EE846AE6EE247A87EE876A84EDB3
:100BA0000D6AD4ED057A236967EE277AFDEEE77AC0
:100BB000F8EEE77A78EE677AFDEEE77A17EE902A9C
:100BC0009A4202DBD21A9342FCDD002A01DAD218E3
:100BD000FDD4D4ED067A27EE277ABDEEC77AB8EEBB
:100BE000C77A38EE478AFDEEC87A17EE901A8B4224
:100BF00002DCC91A8B42FCDD002901DAC918FDD4D8
:100C0000B7EE007AE36894ED096A03EB810194ED95
:100C1000084AF4EEC76A03EB8203D1ED007A77EE5F
:100C2000665A26EE866AD3ED004A66EEA77AF1EEA2
:100C300010FAA5EE846AE4EEA57A03D894ED0D7A55
:100C400036EE877AF0EEE75AD4ED006A84ED0C7A3E
:100C5000E7EE869AF0EE667AD4ED014A35EEE67A52
:100C60003C34A642E7EE247A44ED0F7A44ED0D7A47
:100C70007FF457AF15EE102AD5F8F03105F50C705A
:100C800003EB820393ED000A39EE800A11F04CFF6A
:100C900095ED847AD5ED807A95ED856A77EEC77A01
:100CA000D5ED916AD5F8F83169EEA69AD5F8F0211C
:100CB000A7EE867AD5ED8A5A02EB8302F7EE006A38
:100CC000D2ED007A27EE296A85ED847AE6EE097A7C
:100CD000B0EEE77AB4EEE67AF1EE10FA54BFB0EE79
:100CE000476AB0EE666A86EE867AB4EEE57AF1EE91
:100CF00010FA07D495ED8B6A76EEC66A27EE067A6F
:100D0000A5EEA67A67EEC77A85ED8A7AB7EE007A05
:100D1000C2ED007AD5ED827AD5ED7F6AD5ED835AA2
:100D200076EEE76A95ED886AE6EEA57AE8EEA79A90
:100D3000C5ED827AF0EEE97AF4EEC77AF1EE10FAB8
:100D400048BFF0EE477A87EE270AB4EEC60AF1EE06
:100D500010FA07D4D5ED897A37EE677A20EE270AA4
:100D6000A6EE070A0133D5F8F42185ED880A20EEB6
:100D7000290A9342A8BF0023C5F8F831BDEC048BC3
:100D800070BD94ED0A7AB5EEC07AF1EE10FA02DA8F
:100D900094ED0B7A05E7626A034B84ED097A2262CF
:100DA000A362E0E600000000000080BFDFED915A82
:100DB000B6EE006ADFED907AB2EE087ADFED8F6A68
:100DC000E0EE257AB0EE000A2DE9F04F2DED068B0E
:100DD00077EE867A87B0B0EE609A82461E46F0EED5
:100DE000418AFBFE677A77EEE60A0F4615460AF25D
:100DF00084580024C0EE870A11F08AFF9FED807AA4
:100E00000AF5B16399460493B0EE408A9FED7D0ADE
:100E100028EE078A88ED008A11E079EE097A082C1D
:100E20009FED790A37EE677A65EE277AE5EE877AE5
:100E3000E9EC017A33D025EE800A12F005F9F6EEDE
:100E4000006A07EE904AB7EE007A0134B8EEE76A1E
:100E5000B4EEE69A05EE904AF0EE007AB0EE475A0C
:100E6000F1EE10FAF7EE084AA6EE275AF8EEE55A28
:100E7000D3D4F0EE477A082CE6EE247A39EE666A8F
:100E800036EE066AE0EE267A9FED5F0A37EE467A86
:100E900067EE867AE5EE077AE9EC017ACBD168EE67
:100EA000A88ADFED5A7A9FED5AAA179BA8EEA7AA47
:100EB000002B00F099800AF110034FF0000A394628
:100EC0002A460593169BDFF858911F46334656462F
:100ED000B2EC017AF6EE006AF1EC017A002599EDA8
:100EE000009A77EE877ADDF860B0B1EE007ADFED38
:100EF000458A67EEA67AF0EE689A37EEC99AC9ED90
:100F0000007ADDE904A4CDE9006729EE079A5E4680
:100F100057468B46CDE9023201E098ED008AF7ECA6
:100F2000017A20469FED3B0A04F5307A67EE887A15
:100F30009FED397A04ED01AA84EDAFAAF4EEC07AF0
:100F4000F1EE10FA30FE270AEB0704ED020A05F174
:100F5000010558BF9FED317A20EE077A84EDAE7A15
:100F600096ED008A11F01AFB14ED010A204628EED6
:100F7000098A11F073FB20465834B0EE480A11F08C
:100F8000A9FAB6EC018A54ED087A504629EE088A8F
:100F900094ED980A79EEA79A11F000FB94ED990A66
:100FA000504611F05BFBB0EE480A504611F092FA41
:100FB000D4EDA87A082D78EEA78AAED1DFED147AA9
:100FC0005946179869EEA79A68EEA78ADDE9006787
:100FD000DDE902320136E3EC019AB042E7EC018A26
:100FE00002D098ED008A73E707B0BDEC068BBDE830
:100FF000F08F00BF000070420000104200008A42E3
:101000000000DC430000000000000842BA494C3EEA
:10101000CDCC4C3F00007A46A4707D3FAE47813F67
:10102000683F042410B500F13C0300F507743C331D
:10103000002217494FF07E5EDFF858C0A34243F804
:10104000782C43F874CC43F8702C43F8642C43F8A4
:10105000602C43F85C1C43F8582C43F8542C43F89C
:10106000501C43F848ECE2D1C0F8E021C0F8E4C1DC
:10107000C0F8E821C0F80822C0F80CC2C0F810225D
:10108000C0F814C2C0F81822C0F81CC210BD00BFBE
:10109000000080BF6F12833A2DE9F04F00F58428DD
:1010A0001D4682460F4698F8583E1646022B2DEDF7
:1010B000088BF0EE408AA1B0B0EE609A00F0B782E3
:1010C000012B00F0EC81B2EE04AADFED7EAA339B87
:1010D000002B00F048827C4B42F2647E7B4A42F651
:1010E000842C534442F624215244D6440A93D444D7
:1010F000774B51440992D346329A53440595049252
:101100000022CDF834C003920AF160029A4601929F
:10111000CDE90667CDE90BE1079BB6EE007A5C46A8
:101120005D46F3EC017A00270793069BF3EC016A16
:1011300077EEA67A069367EE877AD5F8C43940F23F
:101140005A22D5F8C819B0EE677A07FB02F2581C8C
:10115000591AF6EE006A134407F1010748BF01F57A
:101160001671B0F5167F0BEB830305F668150A447C
:10117000A8BF0020042F0BEB8202D2ED199AA9EE32
:10118000A67A79EEE79AF0EE697A83ED197AE86546
:10119000D3D110A800945C4607468146DDE90A6574
:1011A00098F8583E022B00F0F581A5F5B07011F0CB
:1011B0009BFAB0EE408AF6EE000AB6EC010A79EE30
:1011C000200A11F0A5FD60EE287A9BED006ADFEDA4
:1011D000416A67EE867A9FED407AA06867EEA67A4C
:1011E000F4EEC77AF1EE10FA37FE277AA8EE0A7A03
:1011F000D4ED037AF8EEE77A77EEC77A07EE100AB5
:10120000B8EEC77AF5EEC07AF1EE10FA0DD577EEAA
:10121000877AF5EEC07AF1EE10FAF8D4F4EEC77AD8
:10122000F1EE10FA06DB77EEC77AF4EEC77AF1EE4C
:1012300010FAF8DABDEEE77A2C350C3417EE103AD6
:10124000B8EEC77A591C77EEC77A8142B4BF8800DE
:10125000002054F8081CB24501EB8303014493EDD0
:10126000007AD1ED006A76EEC76AA7EEA67AA7ECFF
:10127000017A95D1009C4846DFED127A10AB18AD8B
:10128000B3EC017A9D4277EE877AF9D1B5EE007A18
:1012900018AA134627EE877AF0EC017A77EEC77A20
:1012A0008542E3EC017AF7D1349B4FF00009CDF889
:1012B00008B09346CDF820A09A46099EDDE90C5768
:1012C00074E000BF000000005C2E04009428F4FFCE
:1012D0007C2E04009A99193E009C60480000FA4553
:1012E0000000FA44DB0FC9C000803B47A4707D3F7B
:1012F00048E17A3F0000A0423333333FCDCCCC3DB0
:10130000CDCC4C3F5FED0B5AB5EE00BA1FED0C7A19
:101310001FED0C6AA6EEA57A1FED0D0A29EE8BBA19
:10132000A7EE88BA27EE067A87EE000A11F07CFC59
:1013300095ED028A009985ED010A0129F7EE007A00
:1013400020EE088A77EEC07AA7EE8B8AC5ED007A88
:1013500085ED028A8DED0F8A00F00A81F3EE0B7A9B
:10136000E168F2EE026A6068019B06F50036B0EEB5
:10137000677A00EB810068EE266A013109F1010904
:101380004C37A8EE087A0C35E6EE887AB83627EEA8
:10139000087AC7EE276AC0ED006AA0688142A8BF3C
:1013A000002144F80C1F9C4200F0008108F65461B3
:1013B000FAEC016A5FED337A91ED006A98F8581EF5
:1013C00026EE867ABBEC018A0091B4EEE77AF1EE64
:1013D00010FA77FE877A022994D11FED3B7AB4EE9A
:1013E000C76AF1EE10FA06DC28EE278A03D8F5EE7C
:1013F000007AA9EEA78A07EE909AB0EE000AF8EEFE
:10140000E70A11F085FC5FED457A384620EE270AA1
:1014100011F0C4F85FED487A1AED017A38461FEDF5
:10142000490AA7EE270A11F019F9B0EE480A384622
:1014300011F050F85FED4E6A97ED0E8AF6EE007AE5
:1014400097ED0C7A28EE268A98F8581E0129A7EE07
:10145000278A8DED0F8A00F08B8002297FF47EAF02
:10146000F5EEC0AAF1EE10FA7FF778AFB9F1030FED
:1014700000F0D680B9F1070F7FF470AFB7EE00BA75
:1014800082483BEE6ABA029B0FA91844FFF7A4F901
:1014900060EE2A7AE8EE0B7AB0EE678A5EE77C4B64
:1014A000F2EE087A00F50834034493ED187A00F55B
:1014B0000053B4EE677AF1EE10FA00F0E080DFF846
:1014C000F091F0EE006AFFEE007A9FED720A994407
:1014D000D4F8043D704842F6E44B99ED226A99ED48
:1014E0000A7A5044E6EE267AD34467EE877A07EE0E
:1014F000103A6A4BB8EE477AC9F860300123C7EE5C
:10150000876A84F8103DF4EEC06AF1EE10FA58BF15
:10151000B0EE660A89ED070A10F084FF604899ED85
:10152000070A584410F07EFF94F8083D13B10023D9
:1015300084F8083D5B4BF2EE087A234493ED187A69
:10154000B4EE677AF1EE10FA40F0AB8198F8C03D46
:10155000002B40F0A681339BB2EE04AAF7EE00AA5E
:10156000002B7FF4B8AD21B0BDEC088BBDE8F08F47
:10157000A9F1060101293FF6F1AE0FA93046FFF7A8
:101580002BF9B6EE007A60EE077AE8EE077AB0EE55
:10159000678AE3E6284611F0A7F8B0EE408A05F521
:1015A000B07011F0A1F838EE008A04E69DED126AE1
:1015B0009DED107ADDED136A37EE467ADDED117A96
:1015C0009DED145A77EEE67ADDED156A37EE057A71
:1015D0009DED166ADDED175A77EEA67A059AF5EEBF
:1015E000006A039B37EE467ADDF808B077EEE57ABD
:1015F0000133DDF820A027EE267A039367EEA67A62
:10160000A2EC017A0592049AE2EC017A0492339AF0
:101610009A427FF481AD21B0BDEC088BBDE8F08F1C
:10162000B7EE00BA42F6E4403BEE6ABA2BE79FED14
:101630001E7AF0EE419A164BB4EEC71A0344F1EE4F
:1016400010FAD3ED187A00F5005335DD9FED177AC7
:10165000B4EEC71AF1EE10FA00F36081B2EE087A28
:10166000F4EE477AF1EE10FA40F0E08100F508342C
:1016700094F8082D002A00F0DF8100205CE194F846
:10168000082D002A3FF456AF19E700BF9C2D020039
:10169000E42C020000000000142D02000000404174
:1016A000400002009C0D02009A99193F9A99593FF7
:1016B000E40C0200CDCC4C3E1FED028A00F508344C
:1016C00031EE488A38EE088AB4EE678AF1EE10FAF5
:1016D00000F0A681F0EEC87AD948B2EE086A03F6A7
:1016E000E443BFEE007A9FEDD70A03F50039B5EE6B
:1016F000C08AC7EE866A42F6E44BD344FCEEE77A32
:10170000F1EE10FACDED007A9DF80020A0FB02C0AA
:101710004FEAD00000EB4000FCEEE67AD9ED0A6A11
:10172000A2EB800248F2220050FA82F2CDED017A5B
:10173000C54803EB8202D4F8043D504492ED006AA0
:101740009DF8042089ED188A02F1010207EE902A23
:10175000F8EEE77AA6EE277A67EE267A07EE103AD9
:10176000CCBF01230023B8EE477A84F8103DC7EEC2
:10177000876AF4EEC06AF1EE10FA58BFB0EE660A5E
:1017800089ED070A10F04EFEB04899ED070A58445B
:1017900010F048FE94F8083D13B1002384F8083D8A
:1017A000AB4BDFEDAC7A234438EE278AD3ED187AC1
:1017B000B4EE678AF1EE10FA00F02C81F0EEC87AF0
:1017C0009F4AB2EE086A04F69C54BFEE007A9FED81
:1017D0009D0AB5EEC08ADFF88C92C7EE866AD144C6
:1017E000FCEEE77AF1EE10FACDED007A9DF80030CC
:1017F000A2FB030298484FEAD202504402EB420295
:10180000FCEEE67AA3EB820348F2220252FA83F35B
:10181000CDED017A04EB830304F5003493ED006A07
:101820009DF80430D4ED0A6A03F1010384ED188AAF
:1018300007EE903AD8F8BC3DF8EEE77AA6EE277AA4
:1018400067EE267A07EE103ACCBF01230023B8EEEC
:10185000477A88F8C83DC7EE876AF4EEC06AF1EEB1
:1018600010FA58BFB0EE660A84ED070A10F0DAFDF0
:10187000764894ED070A484410F0D4FD98F8C03D2E
:1018800013B1002388F8C03DDFED747AF4EEE79AD7
:10189000F1EE10FA40F1B880F6EE00AA9FED70AAC2
:1018A00015E4DFF8AC91F0EE006AFFEE007AD8F8AC
:1018B000BC3DA1449FED630A674899ED226A99ED0A
:1018C0000A7A5044E6EE267A664C544467EE877AEC
:1018D00007EE103A644BB8EE477AC9F8603001233E
:1018E000C7EE876A88F8C83DF4EEC06AF1EE10FAD8
:1018F00058BFB0EE660A89ED070A10F093FD534811
:1019000099ED070A204410F08DFD98F8C03D002B9A
:101910003FF421AE002388F8C03D1CE6B3EE037A05
:10192000F4EE477AF1EE10FA68D100F5083494F835
:10193000082D002A47D0072048F2220203F6E4438C
:10194000F0EE006A9FED3F0A0244BFEE007A03F515
:1019500000393D4803EB8202D4F8043D42F6E44BE3
:10196000504492ED006AC9ED187AD344A6EE267A67
:10197000D9ED0A6A67EE267A07EE103A0123B8EE2F
:10198000477A84F8103DC7EE876AF4EEC06AF1EE3C
:1019900010FA58BFB0EE660A89ED070A10F042FD52
:1019A0002A4899ED070A584410F03CFD94F8083D88
:1019B00013B1002384F8083DDFED2C7AF4EEE79AAA
:1019C000F1EE10FA38DDDFED2A7A214B234493ED56
:1019D000187AF4EE477AF1EE10FA4FD198F8C03D3C
:1019E000002B4BD1DFED23AAF0EE047A9FED1CAA69
:1019F00079EEEAAA6AEEA7AAFFF769BBF0EE477A8A
:101A000007200AF5083497E79FED15AADFED0DAA28
:101A1000FFF75DBB98F8C03D002B3FF435AFCDE636
:101A200094F8082D002A3FF4BBAE53E6F0EE477A57
:101A300000200AF508347FE7DFED0F7AC5E700BF25
:101A4000ABAAAAAA00000000142D02004000020068
:101A50009C0D02000AD7A33CCC2D0400CDCCCC3E7B
:101A60000000C8429C2D0200000040419A99593F55
:101A7000F62898419A99193FEC514041B2EE086A14
:101A80002E4ABCEEE77A04F69C549FED2D0AC7EE71
:101A9000866ADFF8B8908DED007A9DF80030D14469
:101AA000A2FB03022748BFEE007AD208504402EBA3
:101AB0004202A3EB820348F2220252FA83F304EBC0
:101AC000830304F50034FCEEE66A93ED006AC4ED8E
:101AD000187ACDED016A9DF80430D4ED0A6A01331D
:101AE00007EE903AD8F8BC3DF8EEE77AA6EE277AF2
:101AF00067EE267A07EE103A0123B8EE477A88F8A7
:101B0000C83DC7EE876AF4EEC06AF1EE10FA58BF1E
:101B1000B0EE660A84ED070A10F084FC0A4894EDE2
:101B2000070A484410F07EFC98F8C03D002B3FF4B3
:101B300059AF002388F8C03D54E700BFABAAAAAA5A
:101B400000000000CC2D0400400002009C2D02008B
:101B5000624B2DE9F04F1B780F4687B08046164642
:101B6000032B7D68D0E900123868059075D0042BEE
:101B700043D05B4BF0EE087A9FED5A0AF6EE000A6E
:101B8000059C5948CDE9005693ED007A574BA7EED6
:101B9000270A93ED001A564B02932346FFF77CFA6F
:101BA00046B3234653492C4603EB8606D8E900C5C5
:101BB000D7E90002B7EE007AD1ED007AFCEC015AC9
:101BC000B3EC016A77EE676A67EEA57AB342E6EE98
:101BD000267AE0EC017AD1ED007AB5EC016A37EEB5
:101BE000677AF4EC016A67EE867AE6EE877AE2ECD1
:101BF000017ADFD107B0BDE8F08F002EFAD02B4676
:101C0000059D8A469346A8461C464FF000093A486F
:101C100009F10109BAEC010A0493FEF741FF3748C4
:101C2000A5EC010ABBEC010AFEF73AFF4E45049B06
:101C3000A4EC010AEBD1059A02EB8604D7E9001265
:101C400058F8040B41F8040BA04553F8040B42F874
:101C5000040BF5D107B0BDE8F08F294B0446CDE960
:101C6000005693ED001A214BD3ED000A1C4B93ED67
:101C7000000A1F4B029303462248FFF797F8002EF5
:101C8000B8D023461B492C4603EB860CD7E900024B
:101C9000D8E90056B7EE007AD1ED007AF5EC015A9A
:101CA000B3EC016A77EE676A67EEA57A9C45E6EECB
:101CB000267AE0EC017AD1ED007AB6EC016A37EED3
:101CC000677AF4EC016A67EE867AE6EE877AE2ECF0
:101CD000017ADFD107B0BDE8F08F00BF6C040024AB
:101CE00024040024CDCC4C3EFC0E0024200400240F
:101CF0004C0400242804002470040024E00600247E
:101D00001C040024540900242DE9F04F04468046A9
:101D1000034660342DED068BF0EE408A89B080EDED
:101D2000000AEA480022596001F56A21986043F8E8
:101D30000C2FA34201F5C061F3D10DF1100CE44B5F
:101D400008F5842B42F2046408F1640566468BF8BA
:101D5000582E44440FCB8CE80F004FF4166200213C
:101D6000284605F6681511F0A7FC40F2572356F8EF
:101D7000041B00228B42A8BF0B46A54245E9022363
:101D8000EBD1D44D42F6F047DFF87CA391464544B1
:101D90004744C244CDE902B40024CF4B05F14806C4
:101DA00045ED068A05F81C4C45F8243C07EE904AA0
:101DB000B2EE088A0134B0EE000AF8EEE70AC0EE8F
:101DC000880A10F0A5FF0C2CA6EC010AEED19FEDBD
:101DD000C39A4FF0010B0024A5F110064FF4803296
:101DE0000021384685ED049A11F066FC9FEDBC0A8F
:101DF000304647E9024B45ED038A05ED019A10F0A4
:101E000011FB21464FF48032504685ED059A11F0C2
:101E100053FCB44A9FEDB20A28464AE9024BEA60F5
:101E2000C5ED018A10F0FEFAD5ED086AAE4AFFEE64
:101E3000007AB0EEE67A55ED065AF4EEC96A9FEDE7
:101E4000AB6A304605F81CBCC7EE086ABCEEC77A20
:101E5000F1EE10FA8DED007A9DF80030A2FB03122E
:101E60004FEAD20202EB4202BCEEE67AA3EB820317
:101E700048F22E0202FB09F28DED017A52FA83F349
:101E800048F65A321A449DF804305B4408EB82024B
:101E900007EE103AD2ED016ACCBF5B462346B8EE9E
:101EA000C77A05F8143C4FF48043E6EE877A45F88C
:101EB000203C67EEA57A67EE867AF4EEC97AF1EEF9
:101EC00010FA54BFB0EE670AB0EE490A05ED090AF0
:101ED00010F0A8FA15ED090A284610F0A3FA15F833
:101EE0001C3C0BB105F81C4CB2EE087AD5ED087A13
:101EF0000023F4EE477A6B62F1EE10FA02D115F886
:101F00001C3C5BB3F0EE006A95ED126AFFEE007ABE
:101F100015ED067A9FED710A3046754BE6EE267A8E
:101F20002B62012305F8143C67EE877A15ED087AD9
:101F3000B8EE477AC7EE876AF4EEC06AF1EE10FA9F
:101F400058BFB0EE660A05ED090A10F06BFA15ED00
:101F5000090A284610F066FAD5ED087AF0EEE76A2D
:101F60004FF4C863F2EE084A5F4AF5EEC07A45F8CE
:101F7000203C0123C5ED087A86EEA45A55ED065A99
:101F800005F81C3C30469FED5B6A9FED540AF1EE6C
:101F900010FAFCEEE66ABFEE007ACCBF19460021CB
:101FA000CDED006A9DF80030A2FB0342D20802EB9F
:101FB0004202FCEEC57AA3EB820348F22E02CDED7D
:101FC000017A02FB09F252FA83F348F65A321A44B4
:101FD0009DF80430013308EB820207EE903AD2ED0F
:101FE000016A05F8141CF8EEE77AA6EEA77A67EE08
:101FF000257A87EE867AB4EEC07AF1EE10FA58BFF1
:10200000B0EE470A05ED090A10F00CFA15ED090AC1
:10201000284610F007FA15F81C3C13B1002305F808
:102020001C3C09F10102344B4FF00109022A1D4406
:102030001F449A447FF4B0AEF7EE007A42F6242AA9
:1020400042F68429C24487EEA8AAC1444FF0000892
:10205000DDE902B4CDF804B04FF07C559FED278A3E
:1020600000262046C4ED048AB0EE480A84ED05AA95
:102070004FF0000B84ED028A40F201176560E560C5
:10208000A66110F0CBFC9FED1E9A07EE908A9FEDA3
:102090001D7A4FF07E522046F8EEE79A84ED070A4B
:1020A000F0EE497A626084F800B008F101082785F3
:1020B000E9EE877AC4ED027AB0EE670A10F0AEFC62
:1020C000F0EE407A04F5B07026E000BF80A903006E
:1020D000C0460108242D02000000A04000000000BE
:1020E00000004842DB0F4940ABAAAAAA0000803892
:1020F000000040410000C844B80002000000C8428F
:10210000CDCCCC3DCDCC4C3DFC2C01008FC2F53C60
:102110009EEF273D295C8F3DC4ED5C8A84ED5DAA6E
:10212000B0EE480AC4ED077A84ED5A8AC4F86451C7
:10213000C4F86C51C4F87861009010F06FFC84ED25
:102140005F0AB0EE490A5FED0F7A0098A9EEA70A80
:1021500084F860B1A4F8887184ED5A0A10F05EFC2E
:10216000F0EE407A04F53070C4F86451C4EDB48ADE
:10217000B0EE480AC4ED5F7A2C3484EDAAAA84ED4F
:10218000A78AC4F89852C4F8A052C4F8AC62009070
:1021900010F044FC1FED227A5FED227A84EDAC0A48
:1021A000E9EE877A009884F894B2A4F8BC72C4ED82
:1021B000A77AB0EE670A10F031FC1349134A48467B
:1021C000134B84EDAC0AB0EE680AC4F89812CAF852
:1021D0000420CAF808604AF80C3B10F057F948464A
:1021E000B0EE490A09F14C0910F038FAB8F1080FBD
:1021F0007FF432AFDDF804B00BF654673D6009B0F0
:10220000BDEC068BBDE8F08F9A99993EB970E93E16
:10221000A4470B3F2DE9F04FD3482DED068B83B03B
:1022200000F090FB2021D04800F016FDCE4800F0D1
:102230003DFDCD48B0EE408A00F03CFDCA4800F0BC
:1022400045FD0121C84800F049FD9FEDC87AB4EE74
:10225000C70AF1EE10FA40F174810023C44AC5495F
:1022600000920191137081F8583E009B00241D7864
:1022700001350121BC4800F057FD962003F032FEE5
:1022800001340021B84800F04FFD962003F02AFEEB
:10229000AC42EED1009B1B78042B00F0C181032BD4
:1022A00000F09481DFF814B3B0EE480AB249B348A5
:1022B000FFF72AFDB24FB349AB4800F0C9FCAA486A
:1022C00000F0F8FCA84800F001FD0921A64800F044
:1022D000FFFC0821A448B0EE409A00F0F9FC072169
:1022E000A148F0EE408A00F0F3FC01219E48B0EED8
:1022F000408A00F0EDFCB0EE40AA00219A4800F0C0
:10230000E7FC02219848F0EE409A00F0E1FC79EEFB
:102310000A7AF5EEC07AF1EE10FA74D4B7EE007ACC
:10232000F4EEC77AF1EE10FA37FE277A78EEA97A42
:10233000954B83ED007AF5EEC07AF1EE10FA5FD49A
:10234000B7EE007AF4EEC77AF1EE10FA77FE277A4C
:1023500038EE000A8D4BC3ED007AB5EEC00AF1EEFF
:1023600010FA4AD4F7EE007AB4EEE70AF1EE10FA6A
:1023700077FE807ADFF848820021DFF84892002457
:1023800079484646C7ED007A4D4600F0A7FCDFF8D5
:1023900038A27F4B83ED000A01347348214600F0D8
:1023A0009DFCF7EE007A082CA6EC010AAAEC010AC3
:1023B000E5EC017AF0D1774BC3ED007A009B1978F8
:1023C000042923D003290CD00229D7ED007A03D0A9
:1023D0009FED717A67EE877A019B03F65463C3ED34
:1023E000007A03F07DFD01465F48C1F3802100F0D3
:1023F0009BFC042003F076FD61E7DFED687AB9E726
:10240000DFED667AA4E79FED657A8FE75F4BB0EE6C
:10241000087A97ED00AA0125D3ED009A5A4B2AEECF
:1024200007AAF4EEE79A9FED5D7A93ED009A5C4B74
:10243000F1EE10FADFED5B6A83ED00AA83ED01AAED
:1024400029EE269A58BFF0EE679A514B8BED80AA81
:102450001968F4EEC79A544B8BED81AACBF8FC11A6
:10246000A3F26C4BF1EE10FA19605C4679FE879A84
:102470002CE0B0EE007AF0EE047A09D5F0EE686A4E
:10248000F0EE680AE9EEC76AE6EEA70A10F040FC33
:10249000F7EE007A9FED417A013529EE000A84EDCE
:1024A0000A8A3C347AEE677A84ED978A04ED080A4A
:1024B00084ED940AF4EEC77AF1EE10FA77FE877A8B
:1024C000092D44ED017AC4ED9B7A8AD0F7EE008A9B
:1024D000F8EC017AF9EC015AB6EE007A9FED338AF6
:1024E00000EE105A78EEE77A9FED316ADFED2B6A45
:1024F000BAEEEE0AA5EEA78A28EE068AB4EEE68AC0
:10250000F1EE10FA38FE268AB4EEE88AF1EE10FAFF
:10251000F4EEC79A58BFB0EE688AF1EE10FAA8DD63
:1025200039EEC77AF0EE047AF0EE680A37EE077AF1
:1025300038EEC00AE7EE270A10F0EAFB38EEC00AD0
:10254000A6E79FED1C7AB4EEC70AF1EE10FA01D5AA
:10255000012383E69FED187AB4EEC70AF1EE10FA74
:1025600040F15D81022379E6783D0424CDCC4C3ED8
:102570006C040024FC2E0424000000C0FC0E002487
:102580001C040024511B00082404002420040024FF
:10259000280400240400002448E17A3F00000000E1
:1025A000E008002400001643DC0800246F1283BA00
:1025B0008941803FCDCCCC3E9A99193F70040024CC
:1025C0002C040024080000244C0400249B4D2C46BD
:1025D00005F5347885ED008A103495ED000A4FF04A
:1025E0007C56974F204604ED030A0FF04FFF44F846
:1025F000087C44F8046C04F5307095ED000A5834FA
:1026000084ED970A0FF042FFC4F86072C4F8646268
:102610004445E2D18B4A8C49DFF838B2116049E673
:10262000DFED8A7ADFF82CB268EE277A884B8BEDE3
:102630007B8ACBF8F031FDEEE77A17EE905ACBEDBE
:102640007D7A002D4FEA850605DD184600213246C9
:1026500011F032F80346F1EE047A7E4C04F5F0777F
:10266000A34687EE88AA21464FF000097A4A81EDF9
:102670000B8A81ED0DAAC1F838904A60C1E9033593
:102680003C31B942F0D1F3EE007ACBF80C22CBF812
:10269000E4210022F7EE008A704887EE889ACBF892
:1026A000F8216F4ADFED6F9ACBF814226E4AB0EE34
:1026B000480ACBED888ACBF81C22CBED8A8A8BEDB9
:1026C000899A8BED8B9A10F0AFF9DBED9AAACBEDDE
:1026D0008E9A8AEEA90AB1EE400A10F0A5FADBED57
:1026E000997A8BED960A87EEA90AB1EE400A10F0AE
:1026F0009BFADFED5E7AF0EE409A8AEEA70ACBED08
:102700008F7ACBED949AB1EE400A10F08DFA78EE04
:10271000E98ADFED577A574A68EEA78A8BED970A68
:10272000CBF830229BF86C22CBF83492CBED958A13
:102730000AB1CBF84092504A002D504BCBF864546C
:1027400082ED008ACBF8603405DD18463246002160
:1027500010F0B2FF034600263F4984EDA78A84EDBE
:10276000A9AAC4F8A862C4F87412C4E99F353C341D
:10277000BC42F0D1424CF7EE008AB0EE480A9FED21
:10278000398A224644F8281C04F12400C4ED058A45
:1027900042F8081B002184ED069ACBF868143049F2
:1027A000C4ED078A1160304A84ED089A226110F066
:1027B0003BF994ED179A84ED0B8A89EE080AB1EE85
:1027C000400A10F031FAD4ED167A84ED130A87EE40
:1027D000880AB1EE400A10F027FADFED247AB0EE55
:1027E000408A89EE270AC4ED0C7A84ED118AB1EE95
:1027F000400A10F019FA78EEC88ADFED1D7A1D4AFA
:1028000068EEA78A84ED140A62629BF8DC24A66253
:10281000C4ED128A002A3FF44DAD66634AE59FED90
:10282000197A194AB4EEC70A184900920191F1EEDB
:1028300010FA4CBF03230423137016E55409002437
:102840000000DC43D80E00240000DC4200001643E8
:10285000000000C0700400246F12833AA006002418
:102860000AD7233C0AD7A33C17B7D138CDCC4C3E6E
:10287000CDCC4CBF0000A040CC08002480C3C9C10F
:10288000EC080024CDCC4C3F6C040024FC2E042426
:1028900070B5204900244FF60B731F4A0C6208469E
:1028A000A1F8B031A1F8C8318C62C1F8BC41C1F8BF
:1028B000D4411A4E1A4DC1E90344C1E96D44C1E93E
:1028C0007344184910F0AAF92046174C124A1749C8
:1028D000344410F0A3F90FCD0FC495E80F0084E83D
:1028E0000F000D4A3046124910F098F90A4A114972
:1028F000114810F093F91148FEF794FB0F4B03F5C4
:102900001C70FEF78FFB044A0D490C48BDE870406F
:1029100010F084B9783D042400000024FC0E00244B
:10292000D0460108C50700085C2E0400C90700084E
:10293000CD070008D10700085409002470040024C2
:10294000D50700082DE9F04340F20113B34A0126F0
:1029500005462DED028BF9B0C0F8EC21ADF8203022
:10296000002307968DF8223003F03EFC002840F04B
:102970004881284607A903F0BFFB05F1080000F0D5
:10298000D3FA0DF18808A64B0121A64AC8F80030F9
:1029900003F17D43A8F80C1005F10C0003F5813319
:1029A0004146C8E9012302F0BBFC9F4B05AF002460
:1029B0000126199303F100734FF0030918A903F5D9
:1029C00040733846CDF870901A934FF441731D96BA
:1029D000ADF86C3018941E9421940594CDE91F66CF
:1029E00003F062F810230D960DA98DF844308F4B3B
:1029F00006940E93CDE90F6406AE304605F110063D
:102A000002F03EFA069905F1200000F091F94FF02E
:102A10007E53059A09A90B9330460C933023CDF8C9
:102A200028900DF14809099301F016FA30464F46F7
:102A300001F05CFA3046B0EE408A01F045FAD0ED84
:102A4000007A4646DFF804C2F8EE677ABCE80F0069
:102A500088EE277A0FC79CE8030087E8030085ED1E
:102A60007A7A1BE02302042C71494FF00B0C4FF0D3
:102A7000020703F47F43224634A840F0B880B1F83F
:102A800000E0ADF810C0D9F808100297ADF804C006
:102A9000ADF800E001F038FB01341236052C00F0EF
:102AA00091800B2CDED10122624863490023068805
:102AB00002270C8862F307030E22B9F816100DF5F1
:102AC000A770ADF8046062F30F23ADF80040082250
:102AD00005F114060297002401F016FB414605F1AA
:102AE000300804230C22304601F048FB072C18D88C
:102AF000231F012B58D85FFA84F90027FAB2494600
:102B00003046013701F05AFD95ED7A0A01464046FC
:102B100001F054FA042FF1D1013408F12008072CF8
:102B2000E6D9E1B2304601F02FFD00230134014621
:102B3000DFED420A1A4695ED7A0A404601F00CFA9A
:102B40000B2C5BD1002405F5C877E2B20B2130468F
:102B5000013401F033FD00230146DFED380A95ED25
:102B60007A0A1A46384601F0F7F9082CEDD1344BB1
:102B7000284601241B88EC8520F82C3F01F028FF13
:102B8000224605F5D8702F4901F098FA22462E49C1
:102B900005F5E47001F092FA304601F0E1FC79B0FD
:102BA000BDEC028BBDE8F083E1B2304601F0ECFCF5
:102BB00095ED7A0A01464046013408F1200801F0FB
:102BC000FDF993E70B231A4A0DF1E200ADF804304A
:102BD000ADF8103013880422ADF8003002230293C0
:102BE0000423B9F80A101B0201F08EFA54E70222FE
:102BF00039F81410304601F073FA4DE708F1200857
:102C000074E7044607A928468DF8226003F074FA99
:102C1000072C7FF4B6AE0DF18808C6E66C3F04249D
:102C2000050805090507050604020404010A010B4D
:102C30005C4701086C470108684701086F12033BB5
:102C4000704701086047010864470108F046010821
:102C5000103001F04FB900BF70B500F11004054607
:102C60002DED028B204605F5D87601F031F920468E
:102C700001F03CF92046B0EE408A01F025F9D0ED94
:102C8000007A05F13004F8EE677A88EE270A85EDC0
:102C90007A0A01E095ED7A0A2046203401F0E6F93F
:102CA000B442F7D1BDEC028B70BD00BF103001F013
:102CB0001DB900BF38B500F1300400F5D8752046C5
:102CC000203401F0AFF9AC42F9D138BD704700BFF4
:102CD00000EB411090ED0F0A704700BF30B5114C6A
:102CE00089B005468E46EC460FCCACE80F0094E860
:102CF0000F008CE80F00BEF1000F07D10A2105F18B
:102D0000140009B0BDE8304001F048BC0DEB8E0E58
:102D10000B2105F114001EF8042C09B0BDE8304069
:102D200001F058BC084701082C3001F02FBF00BF4C
:102D30002DE9F04186B08C2300220125FA2605AF4B
:102D40000160194603712B468DF81420402202962B
:102D500004460195009702F023F9002840F09B807B
:102D60009DF814300DF117084022204603F07F0330
:102D7000CDF80080CDE901568DF814308DF817306C
:102D80002B46217902F032F9002840F0848004209B
:102D900003F0A8F800972B4640222046CDE90156C3
:102DA000217902F0FDF8002875D19DF814304022F9
:102DB000CDF80080204603F0BF03CDE901568DF821
:102DC00014308DF817302B46217902F00FF90028C6
:102DD00061D1042003F086F80DF11503432220464B
:102DE00000932B46CDE90156217902F0D9F800284D
:102DF00051D10DF116034822204600932B46CDE910
:102E00000156217902F0CCF8002844D19DF8153004
:102E10004322CDF80080204643F001038DF81530A1
:102E20008DF817309DF8163043F00103CDE90156B7
:102E30008DF816302B46217902F0D8F858BB9DF852
:102E400016304822CDF8008020468DF817302B46EA
:102E5000CDE90156217902F0C9F8E0B900972B4677
:102E600040222046CDE90156217902F099F890B927
:102E70009DF814202B460195204602F0CF050296BE
:102E8000CDF80080402221798DF814508DF817502C
:102E900002F0ACF800B1012006B0BDE8F08100BF3F
:102EA00070B586B000240125102602A94FF4805287
:102EB0001C480194CDE90256CDE904540AF0A8F863
:102EC000642003F027FC022302A94FF48052154826
:102ED00002930594CDE903650AF09AF8042302A948
:102EE0004FF480520F480396CDE904340323029334
:102EF0000AF08EF840F23223042202A90948019315
:102F000010230495CDE90223019B4FF480520593D1
:102F10000AF07EF840F6060102480AF099F82046C9
:102F200006B070BD7C3F042470B51D4B88B00822EC
:102F30004FF4006400211B4E1A614FF0020C039203
:102F40000A225C62202406924022054699600320F2
:102F5000196210215E600126C3E905424FF4C07278
:102F6000DE60DA6107229FED0C7BCDE900C204220E
:102F7000CDE904016946181D029283ED0A7B0AF02F
:102F80001DF830B904462846FFF78AFF204608B0EE
:102F900070BD304608B070BD001000000000000099
:102FA000783F0424404100525E4A0023F0B5146883
:102FB0008FB00A93002C40F0B2805B4B01210326B6
:102FC0000C2511600227D3F8D420584842F48052CF
:102FD000C3F8D420D3F8D42002F480520092009A8F
:102FE000D3F8E02042F01002C3F8E020D3F8E0204C
:102FF00002F010020192019AD3F8E02042F0400260
:10300000C3F8E020D3F8E02002F040020292029AD6
:10301000D3F8E02042F00802C3F8E020D3F8E02023
:1030200002F008020392039AD3F8E02042F480727F
:10303000C3F8E020D3F8E02002F480720492049AEE
:10304000D3F8E02042F08002C3F8E020D3F8E0207B
:1030500002F080020592059AD3F8E02042F02002A7
:10306000C3F8E020D3F8E02002F020020692069A8E
:10307000D3F8E02042F00402C3F8E0204FF6837258
:10308000D3F8E0300B9603F004030C95079302236A
:10309000079908A9CDE9082305F042F848F237134B
:1030A00008A9234808930C950997CDE90A4605F02D
:1030B00037F84CF2037308A91E480893CDE9097448
:1030C000CDE90B6505F02CF840F2FF6308A91A481A
:1030D0000893CDE90974CDE90B6505F021F84FF6A9
:1030E0000C7308A915480893CDE90974CDE90B655F
:1030F00005F016F84FF63F0308A911480893CDE9EB
:103100000974CDE90B6505F00BF8202308A90B48DD
:1031100009970C950893CDE90A4605F001F80FB020
:10312000F0BD00BF703F0424004402580010025854
:1031300000180258000C025800200258001C0258C7
:10314000001402582DE9F04F8BB0DFF85881064685
:103150004E4800AF0D46144602F0A4FD4369D8E97D
:103160000621002A00F0E081002940F09D80022223
:10317000D8F804A04FF008097A62BAF1000F00F005
:103180009D80A200E946012B02F1070222F007020E
:10319000ADEB020D6846ADEB020DEB4600F0CB81C6
:1031A000022B00F05982002B40F0BA81002C00F075
:1031B000B7811A46D8ED0C6A9FED357A0146331D6A
:1031C00036F922C0083107EE90CA33F922C0023224
:1031D000F8EEE77A944267EE877A67EEA67A41EDD9
:1031E000027A07EE90CAF8EEE77A67EE877A67EE22
:1031F000A67A41ED017AE3D859462246D04700210C
:1032000098ED0D6A2B1DDFED236A23489FED237A8D
:10321000DFED235ADBED007A024666EE277AF4EE04
:10322000E67AF1EE10FA0CD9F4EEC77AF1EE10FA64
:1032300067FE277A67EEA57AFDEEE77A17EE902A09
:1032400012B2DBED017A45F8212066EE277AF4EE22
:10325000E67AF1EE10FA40F2DB81F4EEC77A0BF178
:10326000080BF1EE10FA67FE277A67EEA57AFDEEFD
:10327000E77A17EE902A12B243F821200231A142D8
:10328000C8D3CD462C37BD46BDE8F08FC83F0424D7
:103290000000003804FF7FBF0280FFFF04FF7F3F74
:1032A00000FEFF46B03F04240422D8F804A04FF0EB
:1032B00010097A62BAF1000F7FF463AF3B62D8F86D
:1032C0000030BB61002BDDD0DA48C7F810D002F027
:1032D00053FD7B6AF860022B3B6A00F044826A4629
:1032E00060084946012BA2EBC4029546B860C4F3BE
:1032F0005D02EB46ABEBC4008546EE46ADEB090D37
:103300000BEB820968460EEB820CADEB010D01461A
:10331000C7F820D0F961C0E900B909EB82008860E4
:103320000CEB820178617869029101EB820100EB7C
:1033300082000391F969CDE900ECC86000F0EE83EA
:10334000022B00F00183002B40F0F581002C00F0EF
:103350004B847A6A022A00F04D841946D8F824205A
:10336000FB68DFEDB55A02EB8302FB697D6102F178
:10337000040ED3E902A0331D844636F92100D8EDAE
:103380000C7A06EE100A33F9210006EE900A32F9A3
:103390002100B8EEC66A07EE100AF8EEE66A3EF9BA
:1033A0002100B8EEC77A26EE256A66EEA56A27EEFA
:1033B000257A26EE276A66EEA76A27EE277A07EEB9
:1033C000900A48080231F8EEE77A0BEB80058C4250
:1033D00085ED006A09EB800567EEA57AC5ED006A08
:1033E0000AEB80050CEB800085ED007A98ED0C7AF5
:1033F00067EE877AC0ED007ABFD87D69BB69BA688D
:10340000D7E9070198473B6A98ED0D7AD3E900CEDA
:103410007B6A022B00F03D84D8F82C300020FA683B
:10342000DFED8C6A03EB820A3B6A9FED846ADFED75
:10343000845A0AF10408834ED3E9029B2B1D4208EB
:103440000CEB82019200D1ED007A67EE277AF4EE60
:10345000E67AF1EE10FA40F28481F4EEC67AF1EEEB
:1034600010FA66FE277A67EEA57AFDEEE77A17EE88
:10347000901A09B245F820100EEB0201D1ED007A46
:1034800067EE277AF4EEE67AF1EE10FA40F2678101
:10349000F4EEC67AF1EE10FA66FE277A67EEA57AA8
:1034A000FDEEE77A17EE901A09B243F8201009EB07
:1034B0000201D1ED007A67EE277AF4EEE67AF1EEBA
:1034C00010FA40F24A81F4EEC67AF1EE10FA66FE86
:1034D000277A67EEA57AFDEEE77A17EE901A09B221
:1034E0005A444AF82010D2ED007A67EE277AF4EEBB
:1034F000E67AF1EE10FA40F22981F4EEC67AF1EEA6
:1035000010FA66FE277A67EEA57AFDEEE77A17EEE7
:10351000902A12B248F82020023084428FD80FE15E
:1035200022465946D047ACE600297FF420AE2C371E
:10353000BD46BDE8F08F002CF2D0D8ED0C6A844671
:103540009FED417A0021331D56F821200CF1080C23
:1035500082F40002A2F5000207EE902A53F821201F
:103560000231F8EEE77A82F400028C42A2F5000202
:1035700067EE877A67EEA67A4CED027A07EE902A1C
:10358000F8EEE77A67EE877A67EEA67A4CED017A75
:10359000DAD822465946D047002298ED0D6A2B1DF5
:1035A000DFED2C6A29489FED257ADBED007A014694
:1035B00066EE277AF4EEE67AF1EE10FA0BD9F4EE25
:1035C000C77AF1EE10FA67FE277AF0EE675AFEEE40
:1035D000E45A15EE901ADBED017A45F8221066EEFA
:1035E000277AF4EEE67AF1EE10FA1AD9F4EEC77AF9
:1035F0000BF1080BF1EE10FA67FE277AFEEEE47A83
:1036000017EE901A43F8221002329442CDD838E6D1
:1036100043F8210002310BF1080B8C423FF6FAAD62
:103620002FE643F8220002320BF1080B9442BCD87B
:1036300027E600BFCC3F04240000003804FF7F3F92
:1036400000FEFF460280FFFF000000347E0080FF86
:103650000000003004FF7FBF002C3FF461AFD8EDC5
:103660000C6A01461FED067A0022331D844656F887
:103670002200083107EE900A53F822000232F8EED9
:10368000E77A944267EE877A67EEA67A41ED027A8E
:1036900007EE900AF8EEE77A67EE877A67EEA67A89
:1036A00041ED017AE3D8604622465946D0470022D0
:1036B00098ED0D6A2B1D5FED196A9D489FEDA17A6B
:1036C000DBED007A014666EE277AF4EEE67AF1EE5B
:1036D00010FA0BD9F4EEC77AF1EE10FA67FE277AEA
:1036E000F0EE675AFEEEE05A15EE901ADBED017A25
:1036F00045F8221066EE277AF4EEE67AF1EE10FA3B
:1037000011D9F4EEC77A0BF1080BF1EE10FA67FE4F
:10371000277AFEEEE07A17EE901A43F82210023272
:103720009442CDD8ADE543F8220002320BF1080BEC
:103730009442C5D8A5E5BA68BB69D7E9070198479F
:10374000D7F810D02C37BD46BDE8F08F48F8206080
:10375000023084423FF673AEF2E73146C0E63146AE
:10376000A3E6314686E6A00049466208012B00F137
:10377000070020F00700ADEB000DEB46ADEB000DB0
:10378000BA606846ADEB090D0BEB8209EC46C7F851
:103790001CD0ADEB010D00EB8201CCE900B9C7F8FC
:1037A00020D0009001917FF4CBAD002C00F01C8262
:1037B00098ED0C6A331DDFED5F6A56F82A1081F42C
:1037C0000001A1F5000107EE901A53F82A1081F4C8
:1037D0000001B8EEE77AA1F5000127EE267A07EEA0
:1037E000901A4FEA5A010AF1020AF8EEE77A0BEB57
:1037F000810027EE067A09EB8101544567EEA67A2F
:1038000080ED007A67EE867AC1ED007AD5D8BB6983
:10381000D7E9070198473B6A98ED0D7AD3E900CEC6
:103820007B6A022B00F0D282D8F82C300020FA6894
:10383000DFED436A03EB820A3B6A9FED426A0AF1BD
:1038400004083D4ED3E9029B2B1D42080CEB82017C
:103850009200D1ED007A67EE277AF4EEE67AF1EE87
:1038600010FA63D9F4EEC67AF1EE10FA66FE277A02
:10387000F0EE675AFEEEE45A15EE901A45F8201065
:103880000EEB0201D1ED007A67EE277AF4EEE67ACC
:10389000F1EE10FA48D9F4EEC67AF1EE10FA66FEAF
:1038A000277AF0EE675AFEEEE45A15EE901A43F8C6
:1038B000201009EB0201D1ED007A67EE277AF4EED1
:1038C000E67AF1EE10FA2DD9F4EEC67AF1EE10FA9E
:1038D00066FE277AF0EE675AFEEEE45A15EE901A6D
:1038E0005A444AF82010D2ED007A67EE277AF4EEB7
:1038F000E67AF1EE10FA0FD9F4EEC67AF1EE10FA8C
:1039000066FE277AFEEEE47A17EE902A48F8202029
:103910000230844299D813E748F82060023084428C
:1039200093D80DE73146DBE73146C0E73146A5E7DE
:10393000007E0080000000347E0080FF0000003028
:1039400004FF7FBF04FF7F3F002C00F04D817B6AA6
:10395000022B00F07781D8F82430FA687D6103EB00
:10396000820CFB695FED0B5A00220CF1040ED3E9C7
:1039700002A1331D0D4656F82210D8ED0C7A07EE41
:10398000101A53F82210B8EEC76A07EE101A5CF846
:103990002210F8EEC76A07EE101A26EE256A5EF8C6
:1039A0002210B8EEC77A66EEA56A26EE276A27EEE1
:1039B000257A66EEA76A27EE277A07EE901A510855
:1039C0000232F8EEE77A0BEB8100944280ED006A58
:1039D00009EB810067EEA57AC0ED006A0AEB810071
:1039E00005EB810180ED007A98ED0C7A67EE877A1D
:1039F000C1ED007ABFD87D69BB69BA68D7E9070114
:103A000098473B6A98ED0D7AD3E900CE7B6A022B8A
:103A100000F08881D8F82C300020FA685FED386A11
:103A200003EB820A3B6A1FED396A0AF10408DF4E94
:103A3000D3E9029B2B1D42080CEB82019200D1EDD1
:103A4000007A67EE277AF4EEE67AF1EE10FA63D99F
:103A5000F4EEC67AF1EE10FA66FE277AF0EE675AB7
:103A6000FEEEE05A15EE901A45F820100EEB02011A
:103A7000D1ED007A67EE277AF4EEE67AF1EE10FAED
:103A800048D9F4EEC67AF1EE10FA66FE277AF0EE27
:103A9000675AFEEEE05A15EE901A43F8201009EB33
:103AA0000201D1ED007A67EE277AF4EEE67AF1EEC4
:103AB00010FA2DD9F4EEC67AF1EE10FA66FE277AE6
:103AC000F0EE675AFEEEE05A15EE901A5A444AF8A4
:103AD0002010D2ED007A67EE277AF4EEE67AF1EE66
:103AE00010FA0FD9F4EEC67AF1EE10FA66FE277AD4
:103AF000FEEEE07A17EE902A48F820200230844249
:103B000099D81DE648F820600230844293D817E621
:103B10003146DBE73146C0E73146A5E7002C63D0EC
:103B2000D8F824305246F9687D6003EB810CDFED54
:103B3000A05A331D7D690CF1040E56F82210D8ED01
:103B40000C7A81F40001A1F5000107EE101A53F878
:103B5000221081F40001B8EEC76AA1F5000126EE3B
:103B6000256A07EE101A5CF8221081F40001F8EEC5
:103B7000C76A26EE276AA1F5000166EEA56A07EE80
:103B8000101A5EF82210B8EEC77A81F4000166EED2
:103B9000A76AA1F5000127EE257A27EE277A07EE1E
:103BA000901A51080232F8EEE77A0BEB810A944240
:103BB0008AED006A09EB810A67EEA57ACAED006A10
:103BC00005EB810A00EB81018AED007A98ED0C7A11
:103BD00067EE877AC1ED007AAFD8BB69D7E90152A9
:103BE000D7E90701984716E60022BB69D7E9070124
:103BF0009847A5E51A4698ED0C6ADFED6E6A331D0D
:103C000036F9221007EE101A33F9221007EE901A37
:103C1000B8EEC77A51080232F8EEE77A27EE267A34
:103C20000BEB8100944209EB810167EEA67A27EE47
:103C3000067A67EE867A80ED007AC1ED007ADFD8E9
:103C4000FFF7DCBB98ED0C6A0022DFED5B6A331DE9
:103C500056F8221007EE901A53F82210B8EEE77AC1
:103C600007EE901A51080232F8EEE77A27EE267A2C
:103C70000BEB8100944209EB810167EEA67A27EEF7
:103C8000067A67EE867A80ED007AC1ED007ADFD899
:103C9000B2E60021DFED4B6A9FED4B6A2B1DDFED95
:103CA000475A47484A0806460CEB82089200D8ED6E
:103CB000007A67EE277AF4EEE67AF1EE10FA0CD984
:103CC000F4EEC67AF1EE10FA66FE277A67EEA57A70
:103CD000FDEEE77A17EE906A36B2724445F821603D
:103CE000D2ED007A67EE277AF4EEE67AF1EE10FA7A
:103CF00012D9F4EEC67AF1EE10FA66FE277A67EE74
:103D0000A57AFDEEE77A17EE902A12B243F8212049
:103D100002318C42C6D813E543F8210002318C42AF
:103D2000C0D80DE50021DFED276A9FED276A2B1D26
:103D30001E484A0806460CEB82089200D8ED007A2D
:103D400067EE277AF4EEE67AF1EE10FA0BD9F4EE8C
:103D5000C67AF1EE10FA66FE277AF0EE675AFEEEAA
:103D6000E05A15EE906A724445F82160D2ED007A6F
:103D700067EE277AF4EEE67AF1EE10FA0FD9F4EE58
:103D8000C67AF1EE10FA66FE277AFEEEE07A17EEBA
:103D9000902A43F8212002318C42CAD8D0E443F85B
:103DA000210002318C42C4D8CAE400BF007E0080EA
:103DB00000000034000000380000003000FEFF4624
:103DC0000280FFFF04FF7FBF04FF7F3F00215FED04
:103DD000036A1FED036A2B1D1E484A0806460CEBBA
:103DE00082089200D8ED007A67EE277AF4EEE67A40
:103DF000F1EE10FA0BD9F4EEC67AF1EE10FA66FE87
:103E0000277AF0EE675AFEEEE45A15EE906A724495
:103E100045F82160D2ED007A67EE277AF4EEE67A73
:103E2000F1EE10FA0FD9F4EEC67AF1EE10FA66FE52
:103E3000277AFEEEE47A17EE902A43F82120023129
:103E40008C42CAD87CE443F8210002318C42C4D8A9
:103E500076E400BF7E0080FF30B5184C85B0154673
:103E6000046004F1080E0FC98EE80F00D4ED047A47
:103E7000F5EEC07A8DE80F00F1EE10FA1ADDB7EE1C
:103E8000006A94ED057A27EE277AC6EE276A84ED5C
:103E90000D7AC4ED0C6A6DB1204640F8185F01F050
:103EA00001FF074903690020064A2162A262E3601C
:103EB00005B030BD012005B030BD00BFB03F0424C7
:103EC000002000300000003000680830704700BF5C
:103ED000B1F5807F03680A4628BF4FF48072B1F5C0
:103EE000807F9A6094BF00200120704700681830DE
:103EF00001F030BF30B5046883B00D46E3694BB1C3
:103F0000A3680020E26A616A9B00009004F11C0033
:103F100001F0CAFEA3680748A26A9B00216A0090CC
:103F200004F1180001F0C0FE0020C4E9005003B005
:103F300030BD00BF45310008064B302003214FF053
:103F40007E52C3E90201002000211A615A61C3E9CF
:103F500006017047B03F0424F6EE006A9FED166A32
:103F600020EE207A0160F7EE007A80ED036A80EDA2
:103F7000020A27EE267AC7EE876AF4EEE76AF1EEC8
:103F800010FA08DCF4EEC66AF1EE10FA54BFF0EE57
:103F9000667AF0EE467A4FF07E514FF0000C0276D2
:103FA0000022C0ED017AC0F814C001614376827628
:103FB000C0ED070A704700BF00000000DFED177A70
:103FC000F6EE006AB7EE007A9FED156A60EE277A8A
:103FD000016080ED036A80ED020A67EEA67AC7EE03
:103FE000276AF4EEC76AF1EE10FA08DCF4EEC66A4E
:103FF000F1EE10FA54BFB0EE667AB0EE467A4FF0AA
:10400000804C4FF07C514FF48072012380ED017A97
:10401000C0F810C041610283837670476F12033B82
:10402000000000000268037E128807EE902AFBEE73
:10403000C87A1BB1B7EE007A77EE677AD0ED056AE1
:1040400090ED047A77EEE67A437E67EE877A0BB1DD
:10405000F1EE677A90ED030A90ED017A77EEC07A7F
:10406000A7EE270A80ED030A704700BF837E80ED2C
:10407000020AE3B9D0ED077A27EE800AB6EE007A9D
:10408000F7EE007A20EE070A87EE807AB4EEE77A40
:10409000F1EE10FA08DCB5EEC07ADFED067AF1EE4B
:1040A00010FA58BFF0EE477AC0ED017A7047DFEDA5
:1040B000027AE1E7000000006F12033B70B584B0A4
:1040C0000B8800250446ADF80C3016462B462A46D0
:1040D0000399009500F06EFBA582A67504B070BD33
:1040E00000B583B04FF0000E4FF0030C4274ADF8F2
:1040F0000410BDF8043080F810E0A0F802C003807E
:1041000003B05DF804FB00BF00B583B0082AADF82A
:1041100004104FF00301ADF800304180BDF800C03D
:10412000BDF81010BDF804E0A0F804C001811146EC
:10413000BDF814C028BF0821042A9DF81830A0F843
:1041400000E0A0F80CC0017408D8022A0ED801D1F2
:104150000122C280437403B05DF804FB0122437462
:10416000C2804281C28103B05DF804FB0122437426
:10417000C280428103B05DF804FB00BF2DE9F04F1F
:104180004FF00008DFF80C938FB0BC4C037006466C
:10419000BB4B174642600D46202241464846C4F8B4
:1041A0006831C4F86491CDE90388CDE90588CDE98B
:1041B0000788CDE90988CDE90B880FF07DFA202228
:1041C000414604F5A170C4F83181C4F83581C4F8C2
:1041D0003981C4F83D810FF06FFA84F8307173684B
:1041E00084F84882002B00F07D814346484604F560
:1041F000987105F1100AC6460197EF1855F803B0FB
:10420000E2180EF1010ED7F80CC0D7F80490D7F8D9
:10421000088044F803B0C2F80CC04FF0000CC2F89C
:104220000490C2F808803F8A20F802CB17821AF85F
:10423000032001F8012F62B172684FF001071233B9
:10424000724584F84872D8D8019F00220123FFB23A
:104250000CE0776812337745CFD8019F94F8483245
:10426000FFB2002B40F050810122032384F881210A
:1042700000203278C4F8983100238249C4F87431A0
:1042800084F8803184F88831C4F88471C4E96733D4
:104290004FF48023C4E95B1308210123C4E95E3194
:1042A0000021C4E964019AB100200121013A84F897
:1042B000A431C4E96C01082A0CD8DFE812F0F4003C
:1042C000EF00DA00D500D000CB00C500BE00B7007B
:1042D00084F8A4216C4802F00DFE034608B1FFBE2D
:1042E000FEE703A96848039302F066FF002840F048
:1042F0009B80042340F2FF720B90CDE9092394F8D0
:104300003031002B46D0614F8146DFF88CA14FF051
:10431000070BA7F58E756B7B072B07D8DFE803F03B
:10432000817E7B7875723D04CDF820B0281F00F0A7
:104330004FFB2B7B042B38DC022B00F3CC8000F0EE
:10434000C78000233B7015F8043C002B3ED0022BA5
:1043500000F0AE80012B07D115F8033C012B00F0D3
:10436000C580002B00F0D2800023069306A95AF8DE
:10437000043B4548079302F031FA002840F0BA8028
:1043800009F1010994F83021013712355FFA89F3F8
:104390009A42C0D80FB0BDE8F08F0623281F0893BB
:1043A00000F016FB2B7B042BC6DD03233B70A846D5
:1043B00000264046013600F00BFB3B7808F104086C
:1043C000B342F6DC15F8043C002BC0D115F8032CE1
:1043D000062A00F08380072A00F09280022A00F06B
:1043E0009780032A00F09680002A00F09580012A29
:1043F00000F09480042A00F09380052A244A08BF24
:104400001346B2E70523089390E7042308938DE74A
:10441000032308938AE70223089387E7012308937D
:1044200084E70023089381E7FFBEFEE740F2FF32F6
:104430004FF4A073C4E96A234CE740F2FF124FF433
:104440009073C4E96A2345E7FF224FF48073C4E9FF
:104450006A233FE77F22E023C4E96A233AE73F2249
:10446000C023C4E96A2335E71F22A023C4E96A23D5
:1044700030E70F228023C4E96A232BE7E83F0424B6
:1044800040400030002002405441042408410424EC
:104490000000B84F00400030744701080722602335
:1044A000C4E96A2316E703224023C4E96A2311E71B
:1044B00015F8033C042B13D0052B19D0E3B1012BC5
:1044C0001CD0022B1ED0032B7FF44EAF154B4CE7B4
:1044D00001233B706BE702233B7068E7124B44E714
:1044E000124B42E7FFB201220323BFE6104B3CE729
:1044F000104B3AE7FFBEFEE70F4B36E70F4B34E7B2
:104500000F4B32E70F4B30E70123AFE60E4B2CE7A2
:104510000E4B2AE70E4B28E70E4B26E70E4B24E7FF
:104520000E4B22E7002090360800900C1000C010BF
:104530002000F014000180210004002A0008302E21
:104540008000501D001060320002B0250040C03ACB
:104550000080F03E00002143000052470000844BE1
:1045600010B5084C40F2FF724FF00111204602F0E6
:10457000D1FD14F83C2C54F8081C2046BDE810402E
:1045800002F046BB54410424034B0F29D3F86401C5
:1045900098BF00EB41007047E83F0424064B0F2909
:1045A000D3F8643198BF03EB41031B8800EE103A47
:1045B000BBEEC80A704700BFE83F0424044B0F2934
:1045C000D3F8680198BF00EB011000EB4200704780
:1045D000E83F0424064B0F29D3F8683198BF03EB5A
:1045E000011333F8123000EE103ABBEEC80A7047E0
:1045F000E83F0424204B02689A4200D070471F4BCA
:1046000000221F48D3F8D81010B51E4C82B041F0DC
:104610002001C4F8D0010920C4E97502C3F8D810FC
:104620004FF48060D3F8D81094F8483201F020019C
:1046300083F0010301911B02C4E977204FF400606D
:10464000C4F8EC31019B4FF40053C4F8E40104F5C5
:10465000E870C4F8E831C4E97C2202F0CDFF08B16B
:10466000FFBEFEE704F5B67304F5E872C4F808323D
:10467000C4F8B82102B010BD002002400044025826
:1046800040000240E83F0424014803F035BB00BF6E
:10469000B8410424414B02689A4200D070472DE98A
:1046A000F0473F4D95F848320BB9BDE8F08795F8D3
:1046B0003021002A48D005F5A07605F10C0805F553
:1046C0009877002413E003F001013380A8F108007B
:1046D00017F811AC00F05AFABAF1010F23D895F887
:1046E0003021013408F11208A3B29A422AD917F8EE
:1046F000013F0236002BF4D0D5F864310021327826
:1047000033F81400D5F8683103EB041323F81200D2
:1047100033883A7801339BB29A425FFA83F9D2D850
:104720000B468946D1E7C9F34001A8F1040000F027
:104730002DFABAF1020FC9F38001D0D0404600F043
:1047400025FACCE795F8483283F001031548092192
:1047500000221B024FF48064C5F8D821C5F8EC3163
:104760004FF40053C5F8DC21C5F8E831C5E9740100
:104770004FF400610C48C5E97841C5E97C2202F09C
:104780003BFF08B1FFBEFEE795F83021D5F8641174
:104790000648BDE8F04702F03BBA00BF00200240E7
:1047A000E83F042440000240B8410424544104245A
:1047B000704700BF10B592B00180ADF80410C9B2C7
:1047C000149C0B29C460C0E901233FD090F801E09C
:1047D0008446BEF10F0F39D8022A39D0032A04D0FB
:1047E000A2F10102B2FA82F25209012B0E9205D017
:1047F000A3F10203B3FA83F35B095B00022C0F936E
:1048000006D0032C04D0A4F10104B4FA84F46409A2
:104810000A2910940FD8624B4A1E03EB8123CCF86F
:104820001030092A00F2AC80DFE802F02332415058
:104830005F6E7D8C9B1400231846CCF8103001234A
:104840000DA903FA0EF30D9303F06AFC12B010BD2C
:104850001122CAE7534B5448D3F8E02042F4806257
:10486000C3F8E020D3F8E03003F480630C930C9B92
:10487000E5E74C4B4D48D3F8E02042F00202C3F884
:10488000E020D3F8E03003F002030393039BD6E764
:10489000444B4748D3F8E02042F00402C3F8E0203C
:1048A000D3F8E03003F004030493049BC7E73D4BC7
:1048B0004048D3F8E02042F00802C3F8E020D3F8E3
:1048C000E03003F008030593059BB8E7354B3A4801
:1048D000D3F8E02042F01002C3F8E020D3F8E03033
:1048E00003F010030693069BA9E72E4B3348D3F839
:1048F000E02042F02002C3F8E020D3F8E03003F0DB
:1049000020030793079B9AE7264B2D48D3F8E02016
:1049100042F04002C3F8E020D3F8E03003F0400357
:104920000893089B8BE71F4B2648D3F8E02042F002
:104930008002C3F8E020D3F8E03003F0800309934D
:10494000099B7CE7174B2048D3F8E02042F48072A3
:10495000C3F8E020D3F8E03003F480730A930A9B95
:104960006DE7104B1948D3F8E02042F40072C3F809
:10497000E020D3F8E03003F400730B930B9B5EE769
:10498000084B0748D3F8E02042F00102C3F8E020CA
:10499000D3F8E03003F001030293029B4FE700BF1E
:1049A000000002580044025800280258000402582F
:1049B00000080258000C0258001002580014025857
:1049C00000180258001C0258002002580024025807
:1049D0008378022B30B504468FB039D0032B00F01A
:1049E000D180A3F10102B2FA82F25209E3780A926D
:1049F000012B05D0A3F10203B3FA83F35B095B003B
:104A000000222046CDE90B3201F062FD054620462A
:104A100001F066FD23780990082B13D8DFE803F036
:104A20002D405366798C9F051A00574BD3F8E02030
:104A300042F08002C3F8E020D3F8E03003F08003B6
:104A40000793079B09A9284603F06AFB0FB030BD06
:104A50001122CBE74C4B09A92846D3F8E02042F4B9
:104A60008072C3F8E020D3F8E03003F48073089339
:104A7000089B03F055FB0FB030BD434B09A92846F6
:104A8000D3F8E02042F00102C3F8E020D3F8E03090
:104A900003F001030093009B03F042FB0FB030BD15
:104AA000394B09A92846D3F8E02042F00202C3F8A6
:104AB000E020D3F8E03003F002030193019B03F000
:104AC0002FFB0FB030BD304B09A92846D3F8E020AA
:104AD00042F00402C3F8E020D3F8E03003F004030E
:104AE0000293029B03F01CFB0FB030BD264B09A9BB
:104AF0002846D3F8E02042F00802C3F8E020D3F8BB
:104B0000E03003F008030393039B03F009FB0FB0AD
:104B100030BD1D4B09A92846D3F8E02042F0100211
:104B2000C3F8E020D3F8E03003F010030493049BB3
:104B300003F0F6FA0FB030BD134B09A92846D3F89D
:104B4000E02042F02002C3F8E020D3F8E03003F088
:104B500020030593059B03F0E3FA0FB030BD0A4B29
:104B600009A92846D3F8E02042F04002C3F8E0202B
:104B7000D3F8E03003F040030693069B03F0D0FA2D
:104B80000FB030BD1A4631E70044025870B50646F2
:104B90000D4601F09DFC0446304601F0A1FC2A1EA2
:104BA0000146204618BF0122BDE8704003F0F2BD67
:104BB00070B5002386B0122204460393CDE9012389
:104BC0000368032B01D804230493261D06343046C2
:104BD00001F07EFC0546304601F082FC0346694642
:104BE0002846009303F09CFA204601F071FC03462E
:104BF00020461C4601F074FC69460346204600939B
:104C000003F08EFA06B070BD634A0368934210B594
:104C10008CB028D0614A934258D0614A934200F048
:104C20009480604A934201D00CB010BD5E4C5F4846
:104C3000D4F8E03043F00203C4F8E030D4F8E030B8
:104C400003F002030A930A9BFFF7B2FFD4F8F43093
:104C500043F08003C4F8F430D4F8F43003F0800358
:104C60000B930B9BE0E7504C5148D4F8E03043F0F5
:104C70000203C4F8E030D4F8E03003F002030193FB
:104C8000019BFFF795FFD4F8E83000221F2043F482
:104C900000131146C4F8E830D4F8E83003F40013E8
:104CA0000293029BD4F8D83043F00103C4F8D83003
:104CB000D4F8D83003F001030393039B02F0EAFA1F
:104CC0001F200CB0BDE8104002F020BB364C394824
:104CD000D4F8E03043F08003C4F8E030D4F8E0309A
:104CE00003F080030493049BD4F8E03043F0020304
:104CF000C4F8E030D4F8E03003F002030593059BDC
:104D0000FFF756FFD4F8E8300022212043F4800357
:104D10001146C4F8E830D4F8E83003F48003069371
:104D2000069BD4F8D83043F00103C4F8D830D4F847
:104D3000D83003F001030793079B02F0ABFA212060
:104D40000CB0BDE8104002F0E1BA1B48FFF730FF9D
:104D5000154B00224820D3F8E840114644F40004E3
:104D6000C3F8E840D3F8E84004F400040894089C31
:104D7000D3F8D84044F00104C3F8D840D3F8D83071
:104D800003F001030993099B02F084FA48200CB058
:104D9000BDE8104002F0BABA00540040005800408C
:104DA000005C0040001C005800440258C044042429
:104DB0003842042410430424E8430424F0B50022BC
:104DC00087B0184B1021CDF802206F46CDF8062091
:104DD0009C46CDF80A206E46CDF80E200CF1180541
:104DE000CDF812200CF1300EADF81620FF220E4B3C
:104DF0006C46ADF800101A700FCFACE80F0097E8C2
:104E000003008CE803000FCE0FC596E8030085E889
:104E100003000FCCAEE80F0094E803008EE8030017
:104E200007B0F0BD2C0000243442042410B5EFF389
:104E3000108472B6074B1A78120602D504B962B60E
:104E400010BD1B78D820044A5BB200FB032002F09F
:104E500053FFF3E7344204244C420424014804F095
:104E6000EFBB00BFC4420424014804F0E9BB00BF0B
:104E70009C430424014804F0E3BB00BF74440424B1
:104E80002DE9F0410F68D8253C4E84B007FB05F5AD
:104E9000032F06EB0503036058DCCA680C46012AA1
:104EA00054D84FD020689C4661684FF0D808A2685B
:104EB0000DF1100EE36808FB0768ACE80F00304BFB
:104EC000227C8CF80020D8F808C00FCB0EE90F0028
:104ED0000EEB8703BCF1010F53F8103CC8F88C307F
:104EE00042D0BCF1020F35D0BCF1000F08D101F067
:104EF00079F9244B98420CBF234B244BC8F89030CF
:104F00008C35D823217C002203FB07630120354424
:104F10004900C3E926022846C3F89410C3E92822B1
:104F2000C3E92A2204F0C0F880B90146284604F0FB
:104F300093FB58B90146284604F0B8FB003818BF67
:104F4000012004E00A7C103A672AABD9012004B0A2
:104F5000BDE8F08101F046F90A4B98420CBF0C4BBA
:104F60000C4BC8F89030CBE701F03CF9054B984268
:104F70000CBF094B094BC8F89030C1E738420424F4
:104F800028470108000E27075F4390608A62E030DF
:104F9000200BA0101A0980102D0FB0303211D02034
:104FA0002DE9F041046884B01E46E368BDF82C800A
:104FB000C3B90D4617468C34204604F049FB20281F
:104FC000FAD120460C9C33463A462946CDE9018465
:104FD0000A9C009404F0E6F9003818BF012004B0E0
:104FE000BDE8F081012004B0BDE8F0812DE9F04179
:104FF000046884B01E46E368BDF82C80C3B90D4632
:1050000017468C34204604F023FB2028FAD1204692
:105010000C9C33463A462946CDE901840A9C00940B
:1050200004F098F8003818BF012004B0BDE8F08102
:10503000012004B0BDE8F081044B10221A7483F8FB
:10504000E82083F8C02183F898227047384204246E
:1050500030B5002395B04FF48071062204460B93BF
:1050600006921393CDE90C13CDE90E33CDE911333C
:1050700001F0BAF807282AD004F1100541F288326D
:1050800006A9284605F05CF928B1012384F85C30B4
:10509000012015B030BD0223102206A92846029235
:1050A0000022CDE90033012303934FF48003CDE9BF
:1050B000042305224FF0807306926A460F9341F253
:1050C000883305F0D9FA0028DFD115B030BD0323AD
:1050D00084F85C30DCE700BF70B50023A4B04FF06B
:1050E00080724FF480750446ADF806301B93CDE90D
:1050F0001E320122CDE91C53CDE92023CDE9223314
:10510000002942D0F02300F1100516AEADF80630AC
:10511000C02341F2883231462846169305F010F933
:1051200028B1012384F85C30012024B070BD41F225
:1051300088320DF10601284605F07EF90346002865
:10514000EFD14FF4807105222846012508921022E4
:1051500010930D93159302930595CDE90E139FEDD2
:105160001E7B4FF08071CDE91333119141F28833EA
:1051700008A9CDE9035202AA8DED067B05F07CFA61
:105180000028D2D084F85C50CEE700F1100516AEAE
:10519000612341F2883231462846169305F0D0F853
:1051A0000028BED141F288320DF10601284605F0F3
:1051B000D1F90028B5D1BDF80630204623F0780398
:1051C00043F04003ADF80630FFF742FF00289FD0C0
:1051D000A7E700BFAFF30080000000000000400020
:1051E0002DE9F04F00234FF4807601254FF08078B1
:1051F00004462DED028BABB08DF80730219313934D
:105200001B9322961C95CDF89480CDE92333CDE9EC
:105210002653CDE92833CDE91463CDE91633CDE922
:10522000193306230E9300F0DFFF072808D004F19E
:10523000100741F288320EA9384605F081F840B1D6
:10524000012384F85C3001202BB0BDEC028BBDE85B
:10525000F08F02234FF010094FF0050A08AA0EA99B
:1052600038460B95CDF85C80CDF82890CDF838A065
:105270009FED298BCDE9083341F288338DED0C8BFE
:1052800005F0FAF90028DBD141F2883238461CA932
:1052900005F056F80028D3D14FF0400B41F2883288
:1052A0000DF1070138468DF807B005F0C5F8002864
:1052B000C6D141F288331CA902AA3846CDF870A0A5
:1052C000CDF89480CDE902BBCDE904958DED068B38
:1052D00005F0D2F903460028B2D1139308AA1B9314
:1052E0000EA938461496CDF838A0CDF85C80CDF8DC
:1052F00028900B95CDE91533CDE91933CDE9083563
:1053000041F288338DED0C8B05F0B6F900289BD067
:1053100084F85C5097E700BF0000000000004000E8
:105320002DE9F0435C4CA3B00E46046000F05CFF36
:10533000072800F0A480306825467168B26807C568
:10534000B389284620F8043B267B677B04F0DAFF0C
:10535000E0B9524B012E4FF00108E06123610CBF10
:105360004FF400034FF48013C4E9058893FAA3F3C4
:10537000B3FA83F34FF48079013BC4F82490C4E975
:105380000B00281D236204F049FF38B1012384F883
:105390005C300126304623B0BDE8F08366230B90D5
:1053A000139041F2883206A90693CDE90C90CDE91D
:1053B0000E00CDE91100281D04F0C2FF0028E5D140
:1053C000992341F2883206A9281D069304F0B8FFFC
:1053D0000028DBD105231C9019906A4614934FF0E6
:1053E0008073219014A91D931023CDF80C80029393
:1053F00041F288339FED247BCDE91A90CDE91F005F
:10540000CDE90008281D8DED047B05F035F9002855
:10541000BCD131462046FFF75FFE0028B6D12046BA
:10542000FFF7DEFE06460028B0D1002FB2D1EB23F5
:1054300006AA14A9281D14934FF44063CDF8689070
:105440001B934FF40053189617934FF440431C934B
:10545000A0231693062319934FF080539FED0C7BE6
:1054600021934FF04073CDE91F661D938DED067BB0
:1054700005F090F900288DD084F85C8089E703233B
:1054800084F85C3085E700BF0000000000004000A9
:105490000000000000000000984504240050005265
:1054A0002DE9F04F8FB0414B0024026800AF9A42C3
:1054B0007C63C7E90944C7E90B4403D03C37BD46C8
:1054C000BDE8F08F3A4B40F609213A48EA46D3F856
:1054D000D42007F11C0607F1220B4FF0020942F419
:1054E00080424FF00308C3F8D420D3F8D42002F44C
:1054F0008042BA60BA68D3F8E02042F04002C3F8B4
:10550000E020D3F8E02002F04002FA60FA68D3F815
:10551000E02042F02002C3F8E020D3F8E02002F0BF
:1055200020023A613A69D3F8E02042F01002C3F851
:10553000E020D3F8E02002F010027A617A69D3F813
:10554000E02042F00202C3F8E020D3F8E030F86136
:1055500003F002033984BB61174B7B60BB697B6836
:1055600053F8040F7B6000F0B3FF7B6805461868B2
:1055700000F0B6FF16F8013B786207F124012846D7
:10558000C7F830807B63C7E90A9402F0C9FD5E4525
:10559000E5D100225C20114601F07CFE5C2001F088
:1055A000B5FE3C37D546BD46BDE8F08F00500052F1
:1055B000004402580A0A0909F4450424114B026800
:1055C0009A4200D07047104A70B5D2F8D4300F4CD0
:1055D00023F4804304F11806C2F8D43054F8040FC1
:1055E00000F076FF0546206800F07AFF0146284665
:1055F00002F0A4FFB442F1D15C20BDE8704001F09C
:1056000093BE00BF0050005200440258F4450424E9
:10561000014805F04DB900BFA8450424084B1A1DE8
:10562000981D03F1080110B49C1C9A6603F10A024C
:10563000C3E91834C3E91B015DF8044B5A6770478E
:10564000984504242DE9F041821D05468AB0031DCA
:1056500005F10A010830CDE9052305F10C02AB691B
:10566000CDE907010992002B3BD0EF69B7FA87F724
:105670007F090123022205AE4FF006080393CDE90E
:10568000012356F8044B2B792278934217D02B68CC
:10569000F3B1012B02D1F2B10A230493204600F0AA
:1056A0001FFF03462046009300F012FF694602F0F8
:1056B00037FD0AAB9E42E4D10AB0BDE8F0816979BA
:1056C00063789942E3D1002FF3D02B68002BE0D10F
:1056D000CDF81080E2E76378022B0CBF08230A2381
:1056E000DBE70127C5E700BFA04A0368934270B516
:1056F00005468AB07FD0203293427CD09C4A9342A8
:1057000004D02032934201D00AB070BD994C9A481F
:10571000D4F8E03043F00103C4F8E030D4F8E030CE
:1057200003F001030593059BD4F8E03043F0080330
:10573000C4F8E030D4F8E03003F008030693069B89
:10574000D4F8E03043F04003C4F8E030D4F8E0305F
:1057500003F040030793079BD4F8F03043F40003B1
:10576000C4F8F030D4F8F03003F400030893089B39
:10577000FFF768FFD4F8D820804B42F00102296877
:10578000D3F85C02C4F8D820D4F8D82002F0010283
:105790000992774A099C914200F0AB80D3F88022AD
:1057A000013A18BF01229201002840F0CC807448D1
:1057B000582103F22C4403F54775C3F82C04002349
:1057C0002046C4E901124FF480524FF480616362B5
:1057D00062614FF48042C4E903314FF48073C4E93D
:1057E00006234FF40033236201F006FF002800F087
:1057F0009580FFBEFEE75F4C604ED4F8E030304647
:1058000043F00103C4F8E030D4F8E03003F00103C2
:105810000093009BD4F8E03043F01003C4F8E0306C
:10582000D4F8E03003F010030193019BD4F8E0308A
:1058300043F04003C4F8E030D4F8E03003F0400314
:105840000293029BD4F8F03043F48003C4F8F030A4
:10585000D4F8F03003F480030393039BFFF7F2FEC8
:10586000D4F8D830296843F00103404A3068C4F8BE
:10587000D8309142D4F8D83003F001030493049B4C
:1058800027D0736A013B18BF01239B01002852D126
:105890003B4A06F5E8745821C036C6F810210022AC
:1058A0002046C4E901134FF480534FF480616262D3
:1058B00063614FF48073C4E903214FF48042C4E96B
:1058C00006234FF40033236201F096FE08B3FFBEB7
:1058D000FEE7336A013B18BF01239B0118BB02F5A9
:1058E000284206F5AC74572128360C32C6F8302110
:1058F000D5E7D3F87C22013A18BF0122920158BBA8
:105900002048572103F56D7403F52175C3F8B403DE
:1059100055E7C6E92044A6630AB070BDC5E9204436
:10592000A5630AB070BD184A06F5AC745921283633
:10593000C6F83021B3E7154A06F5E8745A21C03697
:10594000C6F81021ABE711485A2103F22C4403F5A5
:105950004775C3F82C0432E70B48592103F56D74E1
:1059600003F52175C3F8B40329E700BF04580140CB
:10597000045C0140004402586C480424104604248E
:10598000280002401000024058000240700002400F
:10599000014802F0B1B900BF68470424014802F091
:1059A000ABB900BFE0470424014802F0A5B900BF2D
:1059B000C4490424014802F09FB900BF3C4A0424B2
:1059C0001A4A0368934210B40BD02032934208D095
:1059D000174A934216D02032934213D05DF8044BFD
:1059E0007047144B0022D3F85442C3F85822002CBD
:1059F000F4D0D3F84802D3E9931223465DF8044B60
:105A0000520818470B4B0022D3F8B044C3F8B42413
:105A1000002CE3D0D3F8AC24D3F8A814D3F8A40412
:105A2000520823465DF8044B184700BF0458014054
:105A3000045C014010460424184A0368934210B4E1
:105A40000BD02032934208D0154A934217D020320F
:105A5000934214D05DF8044B7047124BD3E9942461
:105A60005208C3F85822002CF4D0D3E992012346FF
:105A700001EB820100EB82005DF8044B1847094BF3
:105A8000D3F8AC24D3F8B0445208C3F8B424002CA3
:105A9000E0D0D3F8A814D3F8A404E8E704580140F0
:105AA000045C0140104604242DE9F04F0C684FF4CB
:105AB0001777774E87B004FB07F7012C06EB070832
:105AC000C0F8008000F39C804FF0000907F51273C6
:105AD0000D468E4646F803903344C446C3F80490FE
